{
  "contractName": "Case",
  "abi": [
    {
      "constant": true,
      "inputs": [
        {
          "name": "",
          "type": "uint256"
        }
      ],
      "name": "adminList",
      "outputs": [
        {
          "name": "",
          "type": "address"
        }
      ],
      "payable": false,
      "stateMutability": "view",
      "type": "function"
    },
    {
      "constant": true,
      "inputs": [],
      "name": "owner",
      "outputs": [
        {
          "name": "",
          "type": "address"
        }
      ],
      "payable": false,
      "stateMutability": "view",
      "type": "function"
    },
    {
      "constant": true,
      "inputs": [
        {
          "name": "",
          "type": "uint256"
        }
      ],
      "name": "lawyerList",
      "outputs": [
        {
          "name": "",
          "type": "address"
        }
      ],
      "payable": false,
      "stateMutability": "view",
      "type": "function"
    },
    {
      "constant": true,
      "inputs": [
        {
          "name": "",
          "type": "uint256"
        }
      ],
      "name": "all_cases",
      "outputs": [
        {
          "name": "",
          "type": "string"
        }
      ],
      "payable": false,
      "stateMutability": "view",
      "type": "function"
    },
    {
      "constant": true,
      "inputs": [
        {
          "name": "",
          "type": "uint256"
        }
      ],
      "name": "judgeList",
      "outputs": [
        {
          "name": "",
          "type": "address"
        }
      ],
      "payable": false,
      "stateMutability": "view",
      "type": "function"
    },
    {
      "inputs": [],
      "payable": false,
      "stateMutability": "nonpayable",
      "type": "constructor"
    },
    {
      "constant": true,
      "inputs": [
        {
          "name": "id",
          "type": "string"
        }
      ],
      "name": "getCaseUser",
      "outputs": [
        {
          "name": "",
          "type": "string"
        },
        {
          "name": "",
          "type": "string"
        },
        {
          "name": "",
          "type": "address"
        },
        {
          "name": "",
          "type": "string"
        },
        {
          "name": "",
          "type": "string"
        }
      ],
      "payable": false,
      "stateMutability": "view",
      "type": "function"
    },
    {
      "constant": true,
      "inputs": [
        {
          "name": "id",
          "type": "string"
        }
      ],
      "name": "getCaseDetails",
      "outputs": [
        {
          "name": "",
          "type": "string"
        },
        {
          "name": "",
          "type": "uint256"
        },
        {
          "name": "",
          "type": "string"
        },
        {
          "name": "",
          "type": "string"
        },
        {
          "name": "",
          "type": "string"
        },
        {
          "name": "",
          "type": "string"
        },
        {
          "name": "",
          "type": "string"
        }
      ],
      "payable": false,
      "stateMutability": "view",
      "type": "function"
    },
    {
      "constant": true,
      "inputs": [
        {
          "name": "id",
          "type": "address"
        }
      ],
      "name": "getLawyer",
      "outputs": [
        {
          "name": "",
          "type": "string"
        },
        {
          "name": "",
          "type": "string"
        },
        {
          "name": "",
          "type": "address"
        }
      ],
      "payable": false,
      "stateMutability": "view",
      "type": "function"
    },
    {
      "constant": true,
      "inputs": [
        {
          "name": "id",
          "type": "address"
        }
      ],
      "name": "getJudge",
      "outputs": [
        {
          "name": "",
          "type": "string"
        },
        {
          "name": "",
          "type": "string"
        },
        {
          "name": "",
          "type": "address"
        }
      ],
      "payable": false,
      "stateMutability": "view",
      "type": "function"
    },
    {
      "constant": true,
      "inputs": [
        {
          "name": "id",
          "type": "address"
        }
      ],
      "name": "getAdmin",
      "outputs": [
        {
          "name": "",
          "type": "string"
        },
        {
          "name": "",
          "type": "string"
        },
        {
          "name": "",
          "type": "address"
        }
      ],
      "payable": false,
      "stateMutability": "view",
      "type": "function"
    },
    {
      "constant": false,
      "inputs": [
        {
          "name": "name",
          "type": "string"
        },
        {
          "name": "id",
          "type": "address"
        }
      ],
      "name": "addLawyer",
      "outputs": [],
      "payable": false,
      "stateMutability": "nonpayable",
      "type": "function"
    },
    {
      "constant": false,
      "inputs": [
        {
          "name": "name",
          "type": "string"
        },
        {
          "name": "id",
          "type": "address"
        }
      ],
      "name": "addJudge",
      "outputs": [],
      "payable": false,
      "stateMutability": "nonpayable",
      "type": "function"
    },
    {
      "constant": false,
      "inputs": [
        {
          "name": "id",
          "type": "string"
        },
        {
          "name": "name",
          "type": "string"
        },
        {
          "name": "lawyer",
          "type": "string"
        },
        {
          "name": "date",
          "type": "string"
        },
        {
          "name": "accused",
          "type": "string"
        },
        {
          "name": "rep",
          "type": "string"
        },
        {
          "name": "hearingDate",
          "type": "string"
        }
      ],
      "name": "addCase",
      "outputs": [],
      "payable": false,
      "stateMutability": "nonpayable",
      "type": "function"
    },
    {
      "constant": false,
      "inputs": [
        {
          "name": "id",
          "type": "string"
        },
        {
          "name": "name",
          "type": "string"
        },
        {
          "name": "lawyer",
          "type": "string"
        },
        {
          "name": "hearingDate",
          "type": "string"
        },
        {
          "name": "files",
          "type": "string"
        },
        {
          "name": "severity",
          "type": "uint256"
        },
        {
          "name": "verdict",
          "type": "string"
        },
        {
          "name": "judge",
          "type": "string"
        }
      ],
      "name": "modifyCase",
      "outputs": [],
      "payable": false,
      "stateMutability": "nonpayable",
      "type": "function"
    },
    {
      "constant": false,
      "inputs": [
        {
          "name": "id",
          "type": "address"
        },
        {
          "name": "cases",
          "type": "string"
        }
      ],
      "name": "modifyLawyer",
      "outputs": [],
      "payable": false,
      "stateMutability": "nonpayable",
      "type": "function"
    },
    {
      "constant": false,
      "inputs": [
        {
          "name": "id",
          "type": "address"
        },
        {
          "name": "cases",
          "type": "string"
        }
      ],
      "name": "modifyJudge",
      "outputs": [],
      "payable": false,
      "stateMutability": "nonpayable",
      "type": "function"
    },
    {
      "constant": false,
      "inputs": [
        {
          "name": "id",
          "type": "address"
        },
        {
          "name": "cases",
          "type": "string"
        }
      ],
      "name": "modifyAdmin",
      "outputs": [],
      "payable": false,
      "stateMutability": "nonpayable",
      "type": "function"
    }
  ],
  "bytecode": "0x608060405234801561001057600080fd5b50336000806101000a81548173ffffffffffffffffffffffffffffffffffffffff021916908373ffffffffffffffffffffffffffffffffffffffff160217905550613d0e806100606000396000f3fe6080604052600436106100ea576000357c0100000000000000000000000000000000000000000000000000000000900480624f8125146100ef578063021137581461054157806311117fc8146108a55780634600893b146109205780635093e2b314610a085780635b281ebb14610af057806364efb22b14610bd8578063670c447a14610d41578063698edc7614610e295780638da5cb5b14610f92578063916a1c7014610fe9578063c483739e14611064578063cfe4b20414611118578063d161e8c314611575578063d2b0ee5c1461165d578063ea76ab1d146116d8578063f0437c1914611841575b600080fd5b3480156100fb57600080fd5b5061053f600480360360e081101561011257600080fd5b810190808035906020019064010000000081111561012f57600080fd5b82018360208201111561014157600080fd5b8035906020019184600183028401116401000000008311171561016357600080fd5b91908080601f016020809104026020016040519081016040528093929190818152602001838380828437600081840152601f19601f820116905080830192505050505050509192919290803590602001906401000000008111156101c657600080fd5b8201836020820111156101d857600080fd5b803590602001918460018302840111640100000000831117156101fa57600080fd5b91908080601f016020809104026020016040519081016040528093929190818152602001838380828437600081840152601f19601f8201169050808301925050505050505091929192908035906020019064010000000081111561025d57600080fd5b82018360208201111561026f57600080fd5b8035906020019184600183028401116401000000008311171561029157600080fd5b91908080601f016020809104026020016040519081016040528093929190818152602001838380828437600081840152601f19601f820116905080830192505050505050509192919290803590602001906401000000008111156102f457600080fd5b82018360208201111561030657600080fd5b8035906020019184600183028401116401000000008311171561032857600080fd5b91908080601f016020809104026020016040519081016040528093929190818152602001838380828437600081840152601f19601f8201169050808301925050505050505091929192908035906020019064010000000081111561038b57600080fd5b82018360208201111561039d57600080fd5b803590602001918460018302840111640100000000831117156103bf57600080fd5b91908080601f016020809104026020016040519081016040528093929190818152602001838380828437600081840152601f19601f8201169050808301925050505050505091929192908035906020019064010000000081111561042257600080fd5b82018360208201111561043457600080fd5b8035906020019184600183028401116401000000008311171561045657600080fd5b91908080601f016020809104026020016040519081016040528093929190818152602001838380828437600081840152601f19601f820116905080830192505050505050509192919290803590602001906401000000008111156104b957600080fd5b8201836020820111156104cb57600080fd5b803590602001918460018302840111640100000000831117156104ed57600080fd5b91908080601f016020809104026020016040519081016040528093929190818152602001838380828437600081840152601f19601f820116905080830192505050505050509192919290505050611af9565b005b34801561054d57600080fd5b506106076004803603602081101561056457600080fd5b810190808035906020019064010000000081111561058157600080fd5b82018360208201111561059357600080fd5b803590602001918460018302840111640100000000831117156105b557600080fd5b91908080601f016020809104026020016040519081016040528093929190818152602001838380828437600081840152601f19601f820116905080830192505050505050509192919290505050611e9b565b6040518080602001888152602001806020018060200180602001806020018060200187810387528e818151815260200191508051906020019080838360005b83811015610661578082015181840152602081019050610646565b50505050905090810190601f16801561068e5780820380516001836020036101000a031916815260200191505b5087810386528c818151815260200191508051906020019080838360005b838110156106c75780820151818401526020810190506106ac565b50505050905090810190601f1680156106f45780820380516001836020036101000a031916815260200191505b5087810385528b818151815260200191508051906020019080838360005b8381101561072d578082015181840152602081019050610712565b50505050905090810190601f16801561075a5780820380516001836020036101000a031916815260200191505b5087810384528a818151815260200191508051906020019080838360005b83811015610793578082015181840152602081019050610778565b50505050905090810190601f1680156107c05780820380516001836020036101000a031916815260200191505b50878103835289818151815260200191508051906020019080838360005b838110156107f95780820151818401526020810190506107de565b50505050905090810190601f1680156108265780820380516001836020036101000a031916815260200191505b50878103825288818151815260200191508051906020019080838360005b8381101561085f578082015181840152602081019050610844565b50505050905090810190601f16801561088c5780820380516001836020036101000a031916815260200191505b509d505050505050505050505050505060405180910390f35b3480156108b157600080fd5b506108de600480360360208110156108c857600080fd5b810190808035906020019092919050505061256b565b604051808273ffffffffffffffffffffffffffffffffffffffff1673ffffffffffffffffffffffffffffffffffffffff16815260200191505060405180910390f35b34801561092c57600080fd5b50610a066004803603604081101561094357600080fd5b81019080803573ffffffffffffffffffffffffffffffffffffffff1690602001909291908035906020019064010000000081111561098057600080fd5b82018360208201111561099257600080fd5b803590602001918460018302840111640100000000831117156109b457600080fd5b91908080601f016020809104026020016040519081016040528093929190818152602001838380828437600081840152601f19601f8201169050808301925050505050505091929192905050506125a9565b005b348015610a1457600080fd5b50610aee60048036036040811015610a2b57600080fd5b81019080803573ffffffffffffffffffffffffffffffffffffffff16906020019092919080359060200190640100000000811115610a6857600080fd5b820183602082011115610a7a57600080fd5b80359060200191846001830284011164010000000083111715610a9c57600080fd5b91908080601f016020809104026020016040519081016040528093929190818152602001838380828437600081840152601f19601f820116905080830192505050505050509192919290505050612604565b005b348015610afc57600080fd5b50610bd660048036036040811015610b1357600080fd5b8101908080359060200190640100000000811115610b3057600080fd5b820183602082011115610b4257600080fd5b80359060200191846001830284011164010000000083111715610b6457600080fd5b91908080601f016020809104026020016040519081016040528093929190818152602001838380828437600081840152601f19601f820116905080830192505050505050509192919290803573ffffffffffffffffffffffffffffffffffffffff16906020019092919050505061265f565b005b348015610be457600080fd5b50610c2760048036036020811015610bfb57600080fd5b81019080803573ffffffffffffffffffffffffffffffffffffffff1690602001909291905050506127d7565b6040518080602001806020018473ffffffffffffffffffffffffffffffffffffffff1673ffffffffffffffffffffffffffffffffffffffff168152602001838103835286818151815260200191508051906020019080838360005b83811015610c9d578082015181840152602081019050610c82565b50505050905090810190601f168015610cca5780820380516001836020036101000a031916815260200191505b50838103825285818151815260200191508051906020019080838360005b83811015610d03578082015181840152602081019050610ce8565b50505050905090810190601f168015610d305780820380516001836020036101000a031916815260200191505b509550505050505060405180910390f35b348015610d4d57600080fd5b50610e2760048036036040811015610d6457600080fd5b8101908080359060200190640100000000811115610d8157600080fd5b820183602082011115610d9357600080fd5b80359060200191846001830284011164010000000083111715610db557600080fd5b91908080601f016020809104026020016040519081016040528093929190818152602001838380828437600081840152601f19601f820116905080830192505050505050509192919290803573ffffffffffffffffffffffffffffffffffffffff169060200190929190505050612a08565b005b348015610e3557600080fd5b50610e7860048036036020811015610e4c57600080fd5b81019080803573ffffffffffffffffffffffffffffffffffffffff169060200190929190505050612b80565b6040518080602001806020018473ffffffffffffffffffffffffffffffffffffffff1673ffffffffffffffffffffffffffffffffffffffff168152602001838103835286818151815260200191508051906020019080838360005b83811015610eee578082015181840152602081019050610ed3565b50505050905090810190601f168015610f1b5780820380516001836020036101000a031916815260200191505b50838103825285818151815260200191508051906020019080838360005b83811015610f54578082015181840152602081019050610f39565b50505050905090810190601f168015610f815780820380516001836020036101000a031916815260200191505b509550505050505060405180910390f35b348015610f9e57600080fd5b50610fa7612db1565b604051808273ffffffffffffffffffffffffffffffffffffffff1673ffffffffffffffffffffffffffffffffffffffff16815260200191505060405180910390f35b348015610ff557600080fd5b506110226004803603602081101561100c57600080fd5b8101908080359060200190929190505050612dd6565b604051808273ffffffffffffffffffffffffffffffffffffffff1673ffffffffffffffffffffffffffffffffffffffff16815260200191505060405180910390f35b34801561107057600080fd5b5061109d6004803603602081101561108757600080fd5b8101908080359060200190929190505050612e14565b6040518080602001828103825283818151815260200191508051906020019080838360005b838110156110dd5780820151818401526020810190506110c2565b50505050905090810190601f16801561110a5780820380516001836020036101000a031916815260200191505b509250505060405180910390f35b34801561112457600080fd5b50611573600480360361010081101561113c57600080fd5b810190808035906020019064010000000081111561115957600080fd5b82018360208201111561116b57600080fd5b8035906020019184600183028401116401000000008311171561118d57600080fd5b91908080601f016020809104026020016040519081016040528093929190818152602001838380828437600081840152601f19601f820116905080830192505050505050509192919290803590602001906401000000008111156111f057600080fd5b82018360208201111561120257600080fd5b8035906020019184600183028401116401000000008311171561122457600080fd5b91908080601f016020809104026020016040519081016040528093929190818152602001838380828437600081840152601f19601f8201169050808301925050505050505091929192908035906020019064010000000081111561128757600080fd5b82018360208201111561129957600080fd5b803590602001918460018302840111640100000000831117156112bb57600080fd5b91908080601f016020809104026020016040519081016040528093929190818152602001838380828437600081840152601f19601f8201169050808301925050505050505091929192908035906020019064010000000081111561131e57600080fd5b82018360208201111561133057600080fd5b8035906020019184600183028401116401000000008311171561135257600080fd5b91908080601f016020809104026020016040519081016040528093929190818152602001838380828437600081840152601f19601f820116905080830192505050505050509192919290803590602001906401000000008111156113b557600080fd5b8201836020820111156113c757600080fd5b803590602001918460018302840111640100000000831117156113e957600080fd5b91908080601f016020809104026020016040519081016040528093929190818152602001838380828437600081840152601f19601f820116905080830192505050505050509192919290803590602001909291908035906020019064010000000081111561145657600080fd5b82018360208201111561146857600080fd5b8035906020019184600183028401116401000000008311171561148a57600080fd5b91908080601f016020809104026020016040519081016040528093929190818152602001838380828437600081840152601f19601f820116905080830192505050505050509192919290803590602001906401000000008111156114ed57600080fd5b8201836020820111156114ff57600080fd5b8035906020019184600183028401116401000000008311171561152157600080fd5b91908080601f016020809104026020016040519081016040528093929190818152602001838380828437600081840152601f19601f820116905080830192505050505050509192919290505050612ecf565b005b34801561158157600080fd5b5061165b6004803603604081101561159857600080fd5b81019080803573ffffffffffffffffffffffffffffffffffffffff169060200190929190803590602001906401000000008111156115d557600080fd5b8201836020820111156115e757600080fd5b8035906020019184600183028401116401000000008311171561160957600080fd5b91908080601f016020809104026020016040519081016040528093929190818152602001838380828437600081840152601f19601f82011690508083019250505050505050919291929050505061325e565b005b34801561166957600080fd5b506116966004803603602081101561168057600080fd5b81019080803590602001909291905050506132b9565b604051808273ffffffffffffffffffffffffffffffffffffffff1673ffffffffffffffffffffffffffffffffffffffff16815260200191505060405180910390f35b3480156116e457600080fd5b50611727600480360360208110156116fb57600080fd5b81019080803573ffffffffffffffffffffffffffffffffffffffff1690602001909291905050506132f7565b6040518080602001806020018473ffffffffffffffffffffffffffffffffffffffff1673ffffffffffffffffffffffffffffffffffffffff168152602001838103835286818151815260200191508051906020019080838360005b8381101561179d578082015181840152602081019050611782565b50505050905090810190601f1680156117ca5780820380516001836020036101000a031916815260200191505b50838103825285818151815260200191508051906020019080838360005b838110156118035780820151818401526020810190506117e8565b50505050905090810190601f1680156118305780820380516001836020036101000a031916815260200191505b509550505050505060405180910390f35b34801561184d57600080fd5b506119076004803603602081101561186457600080fd5b810190808035906020019064010000000081111561188157600080fd5b82018360208201111561189357600080fd5b803590602001918460018302840111640100000000831117156118b557600080fd5b91908080601f016020809104026020016040519081016040528093929190818152602001838380828437600081840152601f19601f820116905080830192505050505050509192919290505050613528565b6040518080602001806020018673ffffffffffffffffffffffffffffffffffffffff1673ffffffffffffffffffffffffffffffffffffffff168152602001806020018060200185810385528a818151815260200191508051906020019080838360005b8381101561198557808201518184015260208101905061196a565b50505050905090810190601f1680156119b25780820380516001836020036101000a031916815260200191505b50858103845289818151815260200191508051906020019080838360005b838110156119eb5780820151818401526020810190506119d0565b50505050905090810190601f168015611a185780820380516001836020036101000a031916815260200191505b50858103835287818151815260200191508051906020019080838360005b83811015611a51578082015181840152602081019050611a36565b50505050905090810190601f168015611a7e5780820380516001836020036101000a031916815260200191505b50858103825286818151815260200191508051906020019080838360005b83811015611ab7578082015181840152602081019050611a9c565b50505050905090810190601f168015611ae45780820380516001836020036101000a031916815260200191505b50995050505050505050505060405180910390f35b6000809054906101000a900473ffffffffffffffffffffffffffffffffffffffff1673ffffffffffffffffffffffffffffffffffffffff163373ffffffffffffffffffffffffffffffffffffffff16141515611b5457600080fd5b611b5c6139fa565b6000809054906101000a900473ffffffffffffffffffffffffffffffffffffffff1681610160019073ffffffffffffffffffffffffffffffffffffffff16908173ffffffffffffffffffffffffffffffffffffffff1681525050868160000181905250878160200181905250838160400181905250828160600181905250818160a00181905250848160800181905250858161012001819052506040805190810160405280600881526020017f756e736f6c76656400000000000000000000000000000000000000000000000081525081610100018190525060206040519081016040528060008152508160c00181905250806005896040518082805190602001908083835b602083101515611c875780518252602082019150602081019050602083039250611c62565b6001836020036101000a03801982511681845116808217855250505050505090500191505090815260200160405180910390206000820151816000019080519060200190611cd6929190613a79565b506020820151816001019080519060200190611cf3929190613a79565b506040820151816002019080519060200190611d10929190613a79565b506060820151816003019080519060200190611d2d929190613a79565b506080820151816004019080519060200190611d4a929190613a79565b5060a0820151816005019080519060200190611d67929190613a79565b5060c0820151816006019080519060200190611d84929190613a79565b5060e08201518160070155610100820151816008019080519060200190611dac929190613a79565b50610120820151816009019080519060200190611dca929190613a79565b5061014082015181600a019080519060200190611de8929190613a79565b5061016082015181600b0160006101000a81548173ffffffffffffffffffffffffffffffffffffffff021916908373ffffffffffffffffffffffffffffffffffffffff16021790555061018082015181600c019080519060200190611e4e929190613af9565b509050506001889080600181540180825580915050906001820390600052602060002001600090919290919091509080519060200190611e8f929190613b59565b50505050505050505050565b6060600060608060608060606005886040518082805190602001908083835b602083101515611edf5780518252602082019150602081019050602083039250611eba565b6001836020036101000a03801982511681845116808217855250505050505090500191505090815260200160405180910390206006016005896040518082805190602001908083835b602083101515611f4d5780518252602082019150602081019050602083039250611f28565b6001836020036101000a03801982511681845116808217855250505050505090500191505090815260200160405180910390206007015460058a6040518082805190602001908083835b602083101515611fbc5780518252602082019150602081019050602083039250611f97565b6001836020036101000a038019825116818451168082178552505050505050905001915050908152602001604051809103902060080160058b6040518082805190602001908083835b60208310151561202a5780518252602082019150602081019050602083039250612005565b6001836020036101000a038019825116818451168082178552505050505050905001915050908152602001604051809103902060040160058c6040518082805190602001908083835b6020831015156120985780518252602082019150602081019050602083039250612073565b6001836020036101000a038019825116818451168082178552505050505050905001915050908152602001604051809103902060020160058d6040518082805190602001908083835b60208310151561210657805182526020820191506020810190506020830392506120e1565b6001836020036101000a038019825116818451168082178552505050505050905001915050908152602001604051809103902060030160058e6040518082805190602001908083835b602083101515612174578051825260208201915060208101905060208303925061214f565b6001836020036101000a0380198251168184511680821785525050505050509050019150509081526020016040518091039020600501868054600181600116156101000203166002900480601f01602080910402602001604051908101604052809291908181526020018280546001816001161561010002031660029004801561223f5780601f106122145761010080835404028352916020019161223f565b820191906000526020600020905b81548152906001019060200180831161222257829003601f168201915b50505050509650848054600181600116156101000203166002900480601f0160208091040260200160405190810160405280929190818152602001828054600181600116156101000203166002900480156122db5780601f106122b0576101008083540402835291602001916122db565b820191906000526020600020905b8154815290600101906020018083116122be57829003601f168201915b50505050509450838054600181600116156101000203166002900480601f0160208091040260200160405190810160405280929190818152602001828054600181600116156101000203166002900480156123775780601f1061234c57610100808354040283529160200191612377565b820191906000526020600020905b81548152906001019060200180831161235a57829003601f168201915b50505050509350828054600181600116156101000203166002900480601f0160208091040260200160405190810160405280929190818152602001828054600181600116156101000203166002900480156124135780601f106123e857610100808354040283529160200191612413565b820191906000526020600020905b8154815290600101906020018083116123f657829003601f168201915b50505050509250818054600181600116156101000203166002900480601f0160208091040260200160405190810160405280929190818152602001828054600181600116156101000203166002900480156124af5780601f10612484576101008083540402835291602001916124af565b820191906000526020600020905b81548152906001019060200180831161249257829003601f168201915b50505050509150808054600181600116156101000203166002900480601f01602080910402602001604051908101604052809291908181526020018280546001816001161561010002031660029004801561254b5780601f106125205761010080835404028352916020019161254b565b820191906000526020600020905b81548152906001019060200180831161252e57829003601f168201915b505050505090509650965096509650965096509650919395979092949650565b60048181548110151561257a57fe5b906000526020600020016000915054906101000a900473ffffffffffffffffffffffffffffffffffffffff1681565b80600760008473ffffffffffffffffffffffffffffffffffffffff1673ffffffffffffffffffffffffffffffffffffffff16815260200190815260200160002060020190805190602001906125ff929190613b59565b505050565b80600660008473ffffffffffffffffffffffffffffffffffffffff1673ffffffffffffffffffffffffffffffffffffffff168152602001908152602001600020600201908051906020019061265a929190613b59565b505050565b612667613bd9565b82816000018190525081816020019073ffffffffffffffffffffffffffffffffffffffff16908173ffffffffffffffffffffffffffffffffffffffff168152505080600660008473ffffffffffffffffffffffffffffffffffffffff1673ffffffffffffffffffffffffffffffffffffffff1681526020019081526020016000206000820151816000019080519060200190612704929190613a79565b5060208201518160010160006101000a81548173ffffffffffffffffffffffffffffffffffffffff021916908373ffffffffffffffffffffffffffffffffffffffff1602179055506040820151816002019080519060200190612768929190613a79565b5090505060028290806001815401808255809150509060018203906000526020600020016000909192909190916101000a81548173ffffffffffffffffffffffffffffffffffffffff021916908373ffffffffffffffffffffffffffffffffffffffff16021790555050505050565b6060806000600860008573ffffffffffffffffffffffffffffffffffffffff1673ffffffffffffffffffffffffffffffffffffffff168152602001908152602001600020600001600860008673ffffffffffffffffffffffffffffffffffffffff1673ffffffffffffffffffffffffffffffffffffffff168152602001908152602001600020600201600860008773ffffffffffffffffffffffffffffffffffffffff1673ffffffffffffffffffffffffffffffffffffffff16815260200190815260200160002060010160009054906101000a900473ffffffffffffffffffffffffffffffffffffffff16828054600181600116156101000203166002900480601f0160208091040260200160405190810160405280929190818152602001828054600181600116156101000203166002900480156129585780601f1061292d57610100808354040283529160200191612958565b820191906000526020600020905b81548152906001019060200180831161293b57829003601f168201915b50505050509250818054600181600116156101000203166002900480601f0160208091040260200160405190810160405280929190818152602001828054600181600116156101000203166002900480156129f45780601f106129c9576101008083540402835291602001916129f4565b820191906000526020600020905b8154815290600101906020018083116129d757829003601f168201915b505050505091509250925092509193909250565b612a10613c11565b82816000018190525081816020019073ffffffffffffffffffffffffffffffffffffffff16908173ffffffffffffffffffffffffffffffffffffffff168152505080600760008473ffffffffffffffffffffffffffffffffffffffff1673ffffffffffffffffffffffffffffffffffffffff1681526020019081526020016000206000820151816000019080519060200190612aad929190613a79565b5060208201518160010160006101000a81548173ffffffffffffffffffffffffffffffffffffffff021916908373ffffffffffffffffffffffffffffffffffffffff1602179055506040820151816002019080519060200190612b11929190613a79565b5090505060038290806001815401808255809150509060018203906000526020600020016000909192909190916101000a81548173ffffffffffffffffffffffffffffffffffffffff021916908373ffffffffffffffffffffffffffffffffffffffff16021790555050505050565b6060806000600660008573ffffffffffffffffffffffffffffffffffffffff1673ffffffffffffffffffffffffffffffffffffffff168152602001908152602001600020600001600660008673ffffffffffffffffffffffffffffffffffffffff1673ffffffffffffffffffffffffffffffffffffffff168152602001908152602001600020600201600660008773ffffffffffffffffffffffffffffffffffffffff1673ffffffffffffffffffffffffffffffffffffffff16815260200190815260200160002060010160009054906101000a900473ffffffffffffffffffffffffffffffffffffffff16828054600181600116156101000203166002900480601f016020809104026020016040519081016040528092919081815260200182805460018160011615610100020316600290048015612d015780601f10612cd657610100808354040283529160200191612d01565b820191906000526020600020905b815481529060010190602001808311612ce457829003601f168201915b50505050509250818054600181600116156101000203166002900480601f016020809104026020016040519081016040528092919081815260200182805460018160011615610100020316600290048015612d9d5780601f10612d7257610100808354040283529160200191612d9d565b820191906000526020600020905b815481529060010190602001808311612d8057829003601f168201915b505050505091509250925092509193909250565b6000809054906101000a900473ffffffffffffffffffffffffffffffffffffffff1681565b600281815481101515612de557fe5b906000526020600020016000915054906101000a900473ffffffffffffffffffffffffffffffffffffffff1681565b600181815481101515612e2357fe5b906000526020600020016000915090508054600181600116156101000203166002900480601f016020809104026020016040519081016040528092919081815260200182805460018160011615610100020316600290048015612ec75780601f10612e9c57610100808354040283529160200191612ec7565b820191906000526020600020905b815481529060010190602001808311612eaa57829003601f168201915b505050505081565b866005896040518082805190602001908083835b602083101515612f085780518252602082019150602081019050602083039250612ee3565b6001836020036101000a03801982511681845116808217855250505050505090500191505090815260200160405180910390206000019080519060200190612f51929190613b59565b50856005896040518082805190602001908083835b602083101515612f8b5780518252602082019150602081019050602083039250612f66565b6001836020036101000a03801982511681845116808217855250505050505090500191505090815260200160405180910390206009019080519060200190612fd4929190613b59565b50806005896040518082805190602001908083835b60208310151561300e5780518252602082019150602081019050602083039250612fe9565b6001836020036101000a0380198251168184511680821785525050505050509050019150509081526020016040518091039020600a019080519060200190613057929190613b59565b50846005896040518082805190602001908083835b602083101515613091578051825260208201915060208101905060208303925061306c565b6001836020036101000a038019825116818451168082178552505050505050905001915050908152602001604051809103902060050190805190602001906130da929190613b59565b50836005896040518082805190602001908083835b60208310151561311457805182526020820191506020810190506020830392506130ef565b6001836020036101000a0380198251168184511680821785525050505050509050019150509081526020016040518091039020600601908051906020019061315d929190613b59565b50826005896040518082805190602001908083835b6020831015156131975780518252602082019150602081019050602083039250613172565b6001836020036101000a038019825116818451168082178552505050505050905001915050908152602001604051809103902060070181905550816005896040518082805190602001908083835b60208310151561320a57805182526020820191506020810190506020830392506131e5565b6001836020036101000a03801982511681845116808217855250505050505090500191505090815260200160405180910390206008019080519060200190613253929190613b59565b505050505050505050565b80600860008473ffffffffffffffffffffffffffffffffffffffff1673ffffffffffffffffffffffffffffffffffffffff16815260200190815260200160002060020190805190602001906132b4929190613b59565b505050565b6003818154811015156132c857fe5b906000526020600020016000915054906101000a900473ffffffffffffffffffffffffffffffffffffffff1681565b6060806000600760008573ffffffffffffffffffffffffffffffffffffffff1673ffffffffffffffffffffffffffffffffffffffff168152602001908152602001600020600001600760008673ffffffffffffffffffffffffffffffffffffffff1673ffffffffffffffffffffffffffffffffffffffff168152602001908152602001600020600201600760008773ffffffffffffffffffffffffffffffffffffffff1673ffffffffffffffffffffffffffffffffffffffff16815260200190815260200160002060010160009054906101000a900473ffffffffffffffffffffffffffffffffffffffff16828054600181600116156101000203166002900480601f0160208091040260200160405190810160405280929190818152602001828054600181600116156101000203166002900480156134785780601f1061344d57610100808354040283529160200191613478565b820191906000526020600020905b81548152906001019060200180831161345b57829003601f168201915b50505050509250818054600181600116156101000203166002900480601f0160208091040260200160405190810160405280929190818152602001828054600181600116156101000203166002900480156135145780601f106134e957610100808354040283529160200191613514565b820191906000526020600020905b8154815290600101906020018083116134f757829003601f168201915b505050505091509250925092509193909250565b60608060006060806005866040518082805190602001908083835b6020831015156135685780518252602082019150602081019050602083039250613543565b6001836020036101000a03801982511681845116808217855250505050505090500191505090815260200160405180910390206000016005876040518082805190602001908083835b6020831015156135d657805182526020820191506020810190506020830392506135b1565b6001836020036101000a03801982511681845116808217855250505050505090500191505090815260200160405180910390206001016005886040518082805190602001908083835b602083101515613644578051825260208201915060208101905060208303925061361f565b6001836020036101000a0380198251168184511680821785525050505050509050019150509081526020016040518091039020600b0160009054906101000a900473ffffffffffffffffffffffffffffffffffffffff166005896040518082805190602001908083835b6020831015156136d357805182526020820191506020810190506020830392506136ae565b6001836020036101000a038019825116818451168082178552505050505050905001915050908152602001604051809103902060090160058a6040518082805190602001908083835b602083101515613741578051825260208201915060208101905060208303925061371c565b6001836020036101000a0380198251168184511680821785525050505050509050019150509081526020016040518091039020600a01848054600181600116156101000203166002900480601f01602080910402602001604051908101604052809291908181526020018280546001816001161561010002031660029004801561380c5780601f106137e15761010080835404028352916020019161380c565b820191906000526020600020905b8154815290600101906020018083116137ef57829003601f168201915b50505050509450838054600181600116156101000203166002900480601f0160208091040260200160405190810160405280929190818152602001828054600181600116156101000203166002900480156138a85780601f1061387d576101008083540402835291602001916138a8565b820191906000526020600020905b81548152906001019060200180831161388b57829003601f168201915b50505050509350818054600181600116156101000203166002900480601f0160208091040260200160405190810160405280929190818152602001828054600181600116156101000203166002900480156139445780601f1061391957610100808354040283529160200191613944565b820191906000526020600020905b81548152906001019060200180831161392757829003601f168201915b50505050509150808054600181600116156101000203166002900480601f0160208091040260200160405190810160405280929190818152602001828054600181600116156101000203166002900480156139e05780601f106139b5576101008083540402835291602001916139e0565b820191906000526020600020905b8154815290600101906020018083116139c357829003601f168201915b505050505090509450945094509450945091939590929450565b6101a0604051908101604052806060815260200160608152602001606081526020016060815260200160608152602001606081526020016060815260200160008152602001606081526020016060815260200160608152602001600073ffffffffffffffffffffffffffffffffffffffff168152602001606081525090565b828054600181600116156101000203166002900490600052602060002090601f016020900481019282601f10613aba57805160ff1916838001178555613ae8565b82800160010185558215613ae8579182015b82811115613ae7578251825591602001919060010190613acc565b5b509050613af59190613c49565b5090565b828054828255906000526020600020908101928215613b48579160200282015b82811115613b47578251829080519060200190613b37929190613a79565b5091602001919060010190613b19565b5b509050613b559190613c6e565b5090565b828054600181600116156101000203166002900490600052602060002090601f016020900481019282601f10613b9a57805160ff1916838001178555613bc8565b82800160010185558215613bc8579182015b82811115613bc7578251825591602001919060010190613bac565b5b509050613bd59190613c49565b5090565b60606040519081016040528060608152602001600073ffffffffffffffffffffffffffffffffffffffff168152602001606081525090565b60606040519081016040528060608152602001600073ffffffffffffffffffffffffffffffffffffffff168152602001606081525090565b613c6b91905b80821115613c67576000816000905550600101613c4f565b5090565b90565b613c9791905b80821115613c935760008181613c8a9190613c9a565b50600101613c74565b5090565b90565b50805460018160011615610100020316600290046000825580601f10613cc05750613cdf565b601f016020900490600052602060002090810190613cde9190613c49565b5b5056fea165627a7a723058209d8d464210ea467ecf42cfe5676f8ef57e360a9c49ca992b640bef045356a1120029",
  "source": "//SPDX-License-Identifier:MIT\r\npragma solidity ^0.5.1;\r\n\r\ncontract Case {\r\n    address public owner; \r\n    constructor() public {\r\n        owner  = msg.sender;\r\n        // i could add a person in the constructor here and instead of a separate array of \r\n    }\r\n    struct legal_case {\r\n        string name;\r\n        string id;\r\n        string accused;\r\n        string rep;\r\n        string dateAdded;\r\n        string hearingDate;\r\n        string files;\r\n        uint severity;\r\n        string verdict;\r\n        string lawyers;\r\n        string judge; \r\n        address admin;\r\n        string[] records; \r\n    }\r\n\r\n    struct lawyer{\r\n        string name; \r\n        address id;\r\n        string cases;\r\n    }\r\n    struct judge{\r\n        string name; \r\n        address id;\r\n        string cases;\r\n    }\r\n    struct admin{\r\n        string name; \r\n        address id;\r\n        string cases;\r\n    }\r\n\r\n    string[] public all_cases;\r\n    address[] public lawyerList;\r\n    address[] public judgeList;\r\n    address[] public adminList;\r\n\r\n    mapping(string => legal_case) id_to_case;\r\n    mapping(address => lawyer) addr_to_lawyer;\r\n    mapping(address => judge) addr_to_judge;\r\n    mapping(address => admin) addr_to_admin;\r\n    \r\n    function getCaseUser( string memory id) view public returns ( string memory, string memory, address, string memory, string memory){\r\n        return ( id_to_case[id].name,id_to_case[id].id,id_to_case[id].admin,id_to_case[id].lawyers,id_to_case[id].judge);\r\n    }\r\n    function getCaseDetails( string memory id) view public returns (string memory,uint, string memory,string memory,string memory, string memory, string memory){\r\n        return ( id_to_case[id].files,id_to_case[id].severity,id_to_case[id].verdict,id_to_case[id].dateAdded,id_to_case[id].accused,id_to_case[id].rep, id_to_case[id].hearingDate);\r\n    }\r\n\r\n    function getLawyer( address id) view public returns ( string memory, string memory, address ){\r\n        return ( addr_to_lawyer[id].name, addr_to_lawyer[id].cases, addr_to_lawyer[id].id);\r\n    }\r\n    function getJudge( address id) view public returns ( string memory, string memory ,address){\r\n        return ( addr_to_judge[id].name, addr_to_judge[id].cases, addr_to_judge[id].id);\r\n    }\r\n    function getAdmin( address id) view public returns ( string memory, string memory, address ){\r\n        return ( addr_to_admin[id].name, addr_to_admin[id].cases, addr_to_admin[id].id);\r\n    }\r\n\r\n    function addLawyer( string memory name, address id) public {\r\n        // require(msg.sender == owner );\r\n        \r\n        lawyer memory l;\r\n        l.name = name; \r\n        l.id = id; \r\n        addr_to_lawyer[id] = l;\r\n        lawyerList.push(id);\r\n    }\r\n    function addJudge( string memory name, address id) public {\r\n        // require(msg.sender == owner );\r\n        \r\n        judge memory l;\r\n        l.name = name; \r\n        l.id = id; \r\n        addr_to_judge[id] = l;\r\n        judgeList.push(id);\r\n    }\r\n    function addCase(string memory id, string memory name, string memory lawyer, string memory date,string memory accused, string memory rep, string memory hearingDate) public {\r\n        require(msg.sender == owner );\r\n        \r\n        legal_case memory c;\r\n        c.admin = owner;\r\n        c.name = name; \r\n        c.id = id; \r\n        c.accused = accused;\r\n        c.rep = rep;\r\n        c.hearingDate = hearingDate;\r\n        c.dateAdded = date;\r\n        c.lawyers = lawyer;\r\n        c.verdict = 'unsolved';\r\n        c.files = '';\r\n        id_to_case[id] = c; \r\n        all_cases.push(id); \r\n    }\r\n    // removeCase( ) public {}\r\n    function modifyCase(string memory id, string memory name, string memory lawyer,string memory hearingDate, string memory files, uint severity, string memory verdict, string memory judge) public{\r\n        id_to_case[id].name = name;\r\n        id_to_case[id].lawyers = lawyer;\r\n        id_to_case[id].judge = judge;\r\n        id_to_case[id].hearingDate = hearingDate;\r\n        id_to_case[id].files = files;\r\n        id_to_case[id].severity = severity;\r\n        id_to_case[id].verdict = verdict;\r\n    }\r\n\r\n    function modifyLawyer( address id,string memory cases) public {\r\n        addr_to_lawyer[id].cases = cases;\r\n    }\r\n    function modifyJudge( address id,string memory cases) public {\r\n        addr_to_judge[id].cases = cases;\r\n    }\r\n    function modifyAdmin( address id,string memory cases) public {\r\n        addr_to_admin[id].cases = cases;\r\n    }\r\n}",
  "sourcePath": "C:\\Users\\AKSHAT GUPTA\\Documents\\programing_stuff\\coutLedger\\contract_storage\\contracts\\Case.sol",
  "compiler": {
    "name": "solc",
    "version": "0.5.1+commit.c8a2cb62.Emscripten.clang"
  },
  "schemaVersion": "3.4.11",
  "updatedAt": "2022-12-18T08:05:31.204Z",
  "networkType": "ethereum",
  "devdoc": {
    "methods": {}
  },
  "userdoc": {
    "methods": {}
  }
}