{
  "contractName": "Case",
  "abi": [
    {
      "constant": true,
      "inputs": [
        {
          "name": "",
          "type": "uint256"
        }
      ],
      "name": "adminList",
      "outputs": [
        {
          "name": "",
          "type": "address"
        }
      ],
      "payable": false,
      "stateMutability": "view",
      "type": "function"
    },
    {
      "constant": true,
      "inputs": [],
      "name": "owner",
      "outputs": [
        {
          "name": "",
          "type": "address"
        }
      ],
      "payable": false,
      "stateMutability": "view",
      "type": "function"
    },
    {
      "constant": true,
      "inputs": [
        {
          "name": "",
          "type": "uint256"
        }
      ],
      "name": "lawyerList",
      "outputs": [
        {
          "name": "",
          "type": "address"
        }
      ],
      "payable": false,
      "stateMutability": "view",
      "type": "function"
    },
    {
      "constant": true,
      "inputs": [
        {
          "name": "",
          "type": "uint256"
        }
      ],
      "name": "all_cases",
      "outputs": [
        {
          "name": "",
          "type": "string"
        }
      ],
      "payable": false,
      "stateMutability": "view",
      "type": "function"
    },
    {
      "constant": true,
      "inputs": [
        {
          "name": "",
          "type": "uint256"
        }
      ],
      "name": "judgeList",
      "outputs": [
        {
          "name": "",
          "type": "address"
        }
      ],
      "payable": false,
      "stateMutability": "view",
      "type": "function"
    },
    {
      "inputs": [],
      "payable": false,
      "stateMutability": "nonpayable",
      "type": "constructor"
    },
    {
      "constant": true,
      "inputs": [],
      "name": "testContract",
      "outputs": [
        {
          "name": "",
          "type": "string"
        }
      ],
      "payable": false,
      "stateMutability": "view",
      "type": "function"
    },
    {
      "constant": true,
      "inputs": [
        {
          "name": "id",
          "type": "string"
        }
      ],
      "name": "getCaseUser",
      "outputs": [
        {
          "name": "",
          "type": "string"
        },
        {
          "name": "",
          "type": "string"
        },
        {
          "name": "",
          "type": "address"
        },
        {
          "name": "",
          "type": "string"
        },
        {
          "name": "",
          "type": "string"
        }
      ],
      "payable": false,
      "stateMutability": "view",
      "type": "function"
    },
    {
      "constant": true,
      "inputs": [
        {
          "name": "id",
          "type": "string"
        }
      ],
      "name": "getCaseDetails",
      "outputs": [
        {
          "name": "",
          "type": "string"
        },
        {
          "name": "",
          "type": "uint256"
        },
        {
          "name": "",
          "type": "string"
        },
        {
          "name": "",
          "type": "string"
        },
        {
          "name": "",
          "type": "string"
        },
        {
          "name": "",
          "type": "string"
        },
        {
          "name": "",
          "type": "string"
        }
      ],
      "payable": false,
      "stateMutability": "view",
      "type": "function"
    },
    {
      "constant": true,
      "inputs": [
        {
          "name": "id",
          "type": "address"
        }
      ],
      "name": "getLawyer",
      "outputs": [
        {
          "name": "",
          "type": "string"
        },
        {
          "name": "",
          "type": "string"
        },
        {
          "name": "",
          "type": "address"
        }
      ],
      "payable": false,
      "stateMutability": "view",
      "type": "function"
    },
    {
      "constant": true,
      "inputs": [
        {
          "name": "id",
          "type": "address"
        }
      ],
      "name": "getJudge",
      "outputs": [
        {
          "name": "",
          "type": "string"
        },
        {
          "name": "",
          "type": "string"
        },
        {
          "name": "",
          "type": "address"
        }
      ],
      "payable": false,
      "stateMutability": "view",
      "type": "function"
    },
    {
      "constant": true,
      "inputs": [
        {
          "name": "id",
          "type": "address"
        }
      ],
      "name": "getAdmin",
      "outputs": [
        {
          "name": "",
          "type": "string"
        },
        {
          "name": "",
          "type": "string"
        },
        {
          "name": "",
          "type": "address"
        }
      ],
      "payable": false,
      "stateMutability": "view",
      "type": "function"
    },
    {
      "constant": false,
      "inputs": [
        {
          "name": "name",
          "type": "string"
        },
        {
          "name": "id",
          "type": "address"
        }
      ],
      "name": "addLawyer",
      "outputs": [],
      "payable": false,
      "stateMutability": "nonpayable",
      "type": "function"
    },
    {
      "constant": false,
      "inputs": [
        {
          "name": "name",
          "type": "string"
        },
        {
          "name": "id",
          "type": "address"
        }
      ],
      "name": "addJudge",
      "outputs": [],
      "payable": false,
      "stateMutability": "nonpayable",
      "type": "function"
    },
    {
      "constant": false,
      "inputs": [
        {
          "name": "id",
          "type": "string"
        },
        {
          "name": "name",
          "type": "string"
        },
        {
          "name": "lawyer",
          "type": "string"
        },
        {
          "name": "date",
          "type": "string"
        },
        {
          "name": "accused",
          "type": "string"
        },
        {
          "name": "rep",
          "type": "string"
        },
        {
          "name": "hearingDate",
          "type": "string"
        }
      ],
      "name": "addCase",
      "outputs": [],
      "payable": false,
      "stateMutability": "nonpayable",
      "type": "function"
    },
    {
      "constant": false,
      "inputs": [
        {
          "name": "id",
          "type": "string"
        },
        {
          "name": "name",
          "type": "string"
        },
        {
          "name": "lawyer",
          "type": "string"
        },
        {
          "name": "hearingDate",
          "type": "string"
        },
        {
          "name": "files",
          "type": "string"
        },
        {
          "name": "severity",
          "type": "uint256"
        },
        {
          "name": "verdict",
          "type": "string"
        },
        {
          "name": "judge",
          "type": "string"
        }
      ],
      "name": "modifyCase",
      "outputs": [],
      "payable": false,
      "stateMutability": "nonpayable",
      "type": "function"
    },
    {
      "constant": false,
      "inputs": [
        {
          "name": "id",
          "type": "address"
        },
        {
          "name": "cases",
          "type": "string"
        }
      ],
      "name": "modifyLawyer",
      "outputs": [],
      "payable": false,
      "stateMutability": "nonpayable",
      "type": "function"
    },
    {
      "constant": false,
      "inputs": [
        {
          "name": "id",
          "type": "address"
        },
        {
          "name": "cases",
          "type": "string"
        }
      ],
      "name": "modifyJudge",
      "outputs": [],
      "payable": false,
      "stateMutability": "nonpayable",
      "type": "function"
    },
    {
      "constant": false,
      "inputs": [
        {
          "name": "id",
          "type": "address"
        },
        {
          "name": "cases",
          "type": "string"
        }
      ],
      "name": "modifyAdmin",
      "outputs": [],
      "payable": false,
      "stateMutability": "nonpayable",
      "type": "function"
    }
  ],
  "bytecode": "0x608060405234801561001057600080fd5b50336000806101000a81548173ffffffffffffffffffffffffffffffffffffffff021916908373ffffffffffffffffffffffffffffffffffffffff160217905550613d8b806100606000396000f3fe6080604052600436106100f5576000357c0100000000000000000000000000000000000000000000000000000000900480624f8125146100fa578063021137581461054c57806311117fc8146108b05780634600893b1461092b5780635093e2b314610a135780635b281ebb14610afb57806364efb22b14610be3578063670c447a14610d4c578063698edc7614610e345780638da5cb5b14610f9d578063916a1c7014610ff4578063c36631b41461106f578063c483739e146110ff578063cfe4b204146111b3578063d161e8c314611610578063d2b0ee5c146116f8578063ea76ab1d14611773578063f0437c19146118dc575b600080fd5b34801561010657600080fd5b5061054a600480360360e081101561011d57600080fd5b810190808035906020019064010000000081111561013a57600080fd5b82018360208201111561014c57600080fd5b8035906020019184600183028401116401000000008311171561016e57600080fd5b91908080601f016020809104026020016040519081016040528093929190818152602001838380828437600081840152601f19601f820116905080830192505050505050509192919290803590602001906401000000008111156101d157600080fd5b8201836020820111156101e357600080fd5b8035906020019184600183028401116401000000008311171561020557600080fd5b91908080601f016020809104026020016040519081016040528093929190818152602001838380828437600081840152601f19601f8201169050808301925050505050505091929192908035906020019064010000000081111561026857600080fd5b82018360208201111561027a57600080fd5b8035906020019184600183028401116401000000008311171561029c57600080fd5b91908080601f016020809104026020016040519081016040528093929190818152602001838380828437600081840152601f19601f820116905080830192505050505050509192919290803590602001906401000000008111156102ff57600080fd5b82018360208201111561031157600080fd5b8035906020019184600183028401116401000000008311171561033357600080fd5b91908080601f016020809104026020016040519081016040528093929190818152602001838380828437600081840152601f19601f8201169050808301925050505050505091929192908035906020019064010000000081111561039657600080fd5b8201836020820111156103a857600080fd5b803590602001918460018302840111640100000000831117156103ca57600080fd5b91908080601f016020809104026020016040519081016040528093929190818152602001838380828437600081840152601f19601f8201169050808301925050505050505091929192908035906020019064010000000081111561042d57600080fd5b82018360208201111561043f57600080fd5b8035906020019184600183028401116401000000008311171561046157600080fd5b91908080601f016020809104026020016040519081016040528093929190818152602001838380828437600081840152601f19601f820116905080830192505050505050509192919290803590602001906401000000008111156104c457600080fd5b8201836020820111156104d657600080fd5b803590602001918460018302840111640100000000831117156104f857600080fd5b91908080601f016020809104026020016040519081016040528093929190818152602001838380828437600081840152601f19601f820116905080830192505050505050509192919290505050611b94565b005b34801561055857600080fd5b506106126004803603602081101561056f57600080fd5b810190808035906020019064010000000081111561058c57600080fd5b82018360208201111561059e57600080fd5b803590602001918460018302840111640100000000831117156105c057600080fd5b91908080601f016020809104026020016040519081016040528093929190818152602001838380828437600081840152601f19601f820116905080830192505050505050509192919290505050611edb565b6040518080602001888152602001806020018060200180602001806020018060200187810387528e818151815260200191508051906020019080838360005b8381101561066c578082015181840152602081019050610651565b50505050905090810190601f1680156106995780820380516001836020036101000a031916815260200191505b5087810386528c818151815260200191508051906020019080838360005b838110156106d25780820151818401526020810190506106b7565b50505050905090810190601f1680156106ff5780820380516001836020036101000a031916815260200191505b5087810385528b818151815260200191508051906020019080838360005b8381101561073857808201518184015260208101905061071d565b50505050905090810190601f1680156107655780820380516001836020036101000a031916815260200191505b5087810384528a818151815260200191508051906020019080838360005b8381101561079e578082015181840152602081019050610783565b50505050905090810190601f1680156107cb5780820380516001836020036101000a031916815260200191505b50878103835289818151815260200191508051906020019080838360005b838110156108045780820151818401526020810190506107e9565b50505050905090810190601f1680156108315780820380516001836020036101000a031916815260200191505b50878103825288818151815260200191508051906020019080838360005b8381101561086a57808201518184015260208101905061084f565b50505050905090810190601f1680156108975780820380516001836020036101000a031916815260200191505b509d505050505050505050505050505060405180910390f35b3480156108bc57600080fd5b506108e9600480360360208110156108d357600080fd5b81019080803590602001909291905050506125ab565b604051808273ffffffffffffffffffffffffffffffffffffffff1673ffffffffffffffffffffffffffffffffffffffff16815260200191505060405180910390f35b34801561093757600080fd5b50610a116004803603604081101561094e57600080fd5b81019080803573ffffffffffffffffffffffffffffffffffffffff1690602001909291908035906020019064010000000081111561098b57600080fd5b82018360208201111561099d57600080fd5b803590602001918460018302840111640100000000831117156109bf57600080fd5b91908080601f016020809104026020016040519081016040528093929190818152602001838380828437600081840152601f19601f8201169050808301925050505050505091929192905050506125e9565b005b348015610a1f57600080fd5b50610af960048036036040811015610a3657600080fd5b81019080803573ffffffffffffffffffffffffffffffffffffffff16906020019092919080359060200190640100000000811115610a7357600080fd5b820183602082011115610a8557600080fd5b80359060200191846001830284011164010000000083111715610aa757600080fd5b91908080601f016020809104026020016040519081016040528093929190818152602001838380828437600081840152601f19601f820116905080830192505050505050509192919290505050612644565b005b348015610b0757600080fd5b50610be160048036036040811015610b1e57600080fd5b8101908080359060200190640100000000811115610b3b57600080fd5b820183602082011115610b4d57600080fd5b80359060200191846001830284011164010000000083111715610b6f57600080fd5b91908080601f016020809104026020016040519081016040528093929190818152602001838380828437600081840152601f19601f820116905080830192505050505050509192919290803573ffffffffffffffffffffffffffffffffffffffff16906020019092919050505061269f565b005b348015610bef57600080fd5b50610c3260048036036020811015610c0657600080fd5b81019080803573ffffffffffffffffffffffffffffffffffffffff169060200190929190505050612817565b6040518080602001806020018473ffffffffffffffffffffffffffffffffffffffff1673ffffffffffffffffffffffffffffffffffffffff168152602001838103835286818151815260200191508051906020019080838360005b83811015610ca8578082015181840152602081019050610c8d565b50505050905090810190601f168015610cd55780820380516001836020036101000a031916815260200191505b50838103825285818151815260200191508051906020019080838360005b83811015610d0e578082015181840152602081019050610cf3565b50505050905090810190601f168015610d3b5780820380516001836020036101000a031916815260200191505b509550505050505060405180910390f35b348015610d5857600080fd5b50610e3260048036036040811015610d6f57600080fd5b8101908080359060200190640100000000811115610d8c57600080fd5b820183602082011115610d9e57600080fd5b80359060200191846001830284011164010000000083111715610dc057600080fd5b91908080601f016020809104026020016040519081016040528093929190818152602001838380828437600081840152601f19601f820116905080830192505050505050509192919290803573ffffffffffffffffffffffffffffffffffffffff169060200190929190505050612a48565b005b348015610e4057600080fd5b50610e8360048036036020811015610e5757600080fd5b81019080803573ffffffffffffffffffffffffffffffffffffffff169060200190929190505050612bc0565b6040518080602001806020018473ffffffffffffffffffffffffffffffffffffffff1673ffffffffffffffffffffffffffffffffffffffff168152602001838103835286818151815260200191508051906020019080838360005b83811015610ef9578082015181840152602081019050610ede565b50505050905090810190601f168015610f265780820380516001836020036101000a031916815260200191505b50838103825285818151815260200191508051906020019080838360005b83811015610f5f578082015181840152602081019050610f44565b50505050905090810190601f168015610f8c5780820380516001836020036101000a031916815260200191505b509550505050505060405180910390f35b348015610fa957600080fd5b50610fb2612df1565b604051808273ffffffffffffffffffffffffffffffffffffffff1673ffffffffffffffffffffffffffffffffffffffff16815260200191505060405180910390f35b34801561100057600080fd5b5061102d6004803603602081101561101757600080fd5b8101908080359060200190929190505050612e16565b604051808273ffffffffffffffffffffffffffffffffffffffff1673ffffffffffffffffffffffffffffffffffffffff16815260200191505060405180910390f35b34801561107b57600080fd5b50611084612e54565b6040518080602001828103825283818151815260200191508051906020019080838360005b838110156110c45780820151818401526020810190506110a9565b50505050905090810190601f1680156110f15780820380516001836020036101000a031916815260200191505b509250505060405180910390f35b34801561110b57600080fd5b506111386004803603602081101561112257600080fd5b8101908080359060200190929190505050612e91565b6040518080602001828103825283818151815260200191508051906020019080838360005b8381101561117857808201518184015260208101905061115d565b50505050905090810190601f1680156111a55780820380516001836020036101000a031916815260200191505b509250505060405180910390f35b3480156111bf57600080fd5b5061160e60048036036101008110156111d757600080fd5b81019080803590602001906401000000008111156111f457600080fd5b82018360208201111561120657600080fd5b8035906020019184600183028401116401000000008311171561122857600080fd5b91908080601f016020809104026020016040519081016040528093929190818152602001838380828437600081840152601f19601f8201169050808301925050505050505091929192908035906020019064010000000081111561128b57600080fd5b82018360208201111561129d57600080fd5b803590602001918460018302840111640100000000831117156112bf57600080fd5b91908080601f016020809104026020016040519081016040528093929190818152602001838380828437600081840152601f19601f8201169050808301925050505050505091929192908035906020019064010000000081111561132257600080fd5b82018360208201111561133457600080fd5b8035906020019184600183028401116401000000008311171561135657600080fd5b91908080601f016020809104026020016040519081016040528093929190818152602001838380828437600081840152601f19601f820116905080830192505050505050509192919290803590602001906401000000008111156113b957600080fd5b8201836020820111156113cb57600080fd5b803590602001918460018302840111640100000000831117156113ed57600080fd5b91908080601f016020809104026020016040519081016040528093929190818152602001838380828437600081840152601f19601f8201169050808301925050505050505091929192908035906020019064010000000081111561145057600080fd5b82018360208201111561146257600080fd5b8035906020019184600183028401116401000000008311171561148457600080fd5b91908080601f016020809104026020016040519081016040528093929190818152602001838380828437600081840152601f19601f82011690508083019250505050505050919291929080359060200190929190803590602001906401000000008111156114f157600080fd5b82018360208201111561150357600080fd5b8035906020019184600183028401116401000000008311171561152557600080fd5b91908080601f016020809104026020016040519081016040528093929190818152602001838380828437600081840152601f19601f8201169050808301925050505050505091929192908035906020019064010000000081111561158857600080fd5b82018360208201111561159a57600080fd5b803590602001918460018302840111640100000000831117156115bc57600080fd5b91908080601f016020809104026020016040519081016040528093929190818152602001838380828437600081840152601f19601f820116905080830192505050505050509192919290505050612f4c565b005b34801561161c57600080fd5b506116f66004803603604081101561163357600080fd5b81019080803573ffffffffffffffffffffffffffffffffffffffff1690602001909291908035906020019064010000000081111561167057600080fd5b82018360208201111561168257600080fd5b803590602001918460018302840111640100000000831117156116a457600080fd5b91908080601f016020809104026020016040519081016040528093929190818152602001838380828437600081840152601f19601f8201169050808301925050505050505091929192905050506132db565b005b34801561170457600080fd5b506117316004803603602081101561171b57600080fd5b8101908080359060200190929190505050613336565b604051808273ffffffffffffffffffffffffffffffffffffffff1673ffffffffffffffffffffffffffffffffffffffff16815260200191505060405180910390f35b34801561177f57600080fd5b506117c26004803603602081101561179657600080fd5b81019080803573ffffffffffffffffffffffffffffffffffffffff169060200190929190505050613374565b6040518080602001806020018473ffffffffffffffffffffffffffffffffffffffff1673ffffffffffffffffffffffffffffffffffffffff168152602001838103835286818151815260200191508051906020019080838360005b8381101561183857808201518184015260208101905061181d565b50505050905090810190601f1680156118655780820380516001836020036101000a031916815260200191505b50838103825285818151815260200191508051906020019080838360005b8381101561189e578082015181840152602081019050611883565b50505050905090810190601f1680156118cb5780820380516001836020036101000a031916815260200191505b509550505050505060405180910390f35b3480156118e857600080fd5b506119a2600480360360208110156118ff57600080fd5b810190808035906020019064010000000081111561191c57600080fd5b82018360208201111561192e57600080fd5b8035906020019184600183028401116401000000008311171561195057600080fd5b91908080601f016020809104026020016040519081016040528093929190818152602001838380828437600081840152601f19601f8201169050808301925050505050505091929192905050506135a5565b6040518080602001806020018673ffffffffffffffffffffffffffffffffffffffff1673ffffffffffffffffffffffffffffffffffffffff168152602001806020018060200185810385528a818151815260200191508051906020019080838360005b83811015611a20578082015181840152602081019050611a05565b50505050905090810190601f168015611a4d5780820380516001836020036101000a031916815260200191505b50858103845289818151815260200191508051906020019080838360005b83811015611a86578082015181840152602081019050611a6b565b50505050905090810190601f168015611ab35780820380516001836020036101000a031916815260200191505b50858103835287818151815260200191508051906020019080838360005b83811015611aec578082015181840152602081019050611ad1565b50505050905090810190601f168015611b195780820380516001836020036101000a031916815260200191505b50858103825286818151815260200191508051906020019080838360005b83811015611b52578082015181840152602081019050611b37565b50505050905090810190601f168015611b7f5780820380516001836020036101000a031916815260200191505b50995050505050505050505060405180910390f35b611b9c613a77565b6000809054906101000a900473ffffffffffffffffffffffffffffffffffffffff1681610160019073ffffffffffffffffffffffffffffffffffffffff16908173ffffffffffffffffffffffffffffffffffffffff1681525050868160000181905250878160200181905250838160400181905250828160600181905250818160a00181905250848160800181905250858161012001819052506040805190810160405280600881526020017f756e736f6c76656400000000000000000000000000000000000000000000000081525081610100018190525060206040519081016040528060008152508160c00181905250806005896040518082805190602001908083835b602083101515611cc75780518252602082019150602081019050602083039250611ca2565b6001836020036101000a03801982511681845116808217855250505050505090500191505090815260200160405180910390206000820151816000019080519060200190611d16929190613af6565b506020820151816001019080519060200190611d33929190613af6565b506040820151816002019080519060200190611d50929190613af6565b506060820151816003019080519060200190611d6d929190613af6565b506080820151816004019080519060200190611d8a929190613af6565b5060a0820151816005019080519060200190611da7929190613af6565b5060c0820151816006019080519060200190611dc4929190613af6565b5060e08201518160070155610100820151816008019080519060200190611dec929190613af6565b50610120820151816009019080519060200190611e0a929190613af6565b5061014082015181600a019080519060200190611e28929190613af6565b5061016082015181600b0160006101000a81548173ffffffffffffffffffffffffffffffffffffffff021916908373ffffffffffffffffffffffffffffffffffffffff16021790555061018082015181600c019080519060200190611e8e929190613b76565b509050506001889080600181540180825580915050906001820390600052602060002001600090919290919091509080519060200190611ecf929190613bd6565b50505050505050505050565b6060600060608060608060606005886040518082805190602001908083835b602083101515611f1f5780518252602082019150602081019050602083039250611efa565b6001836020036101000a03801982511681845116808217855250505050505090500191505090815260200160405180910390206006016005896040518082805190602001908083835b602083101515611f8d5780518252602082019150602081019050602083039250611f68565b6001836020036101000a03801982511681845116808217855250505050505090500191505090815260200160405180910390206007015460058a6040518082805190602001908083835b602083101515611ffc5780518252602082019150602081019050602083039250611fd7565b6001836020036101000a038019825116818451168082178552505050505050905001915050908152602001604051809103902060080160058b6040518082805190602001908083835b60208310151561206a5780518252602082019150602081019050602083039250612045565b6001836020036101000a038019825116818451168082178552505050505050905001915050908152602001604051809103902060040160058c6040518082805190602001908083835b6020831015156120d857805182526020820191506020810190506020830392506120b3565b6001836020036101000a038019825116818451168082178552505050505050905001915050908152602001604051809103902060020160058d6040518082805190602001908083835b6020831015156121465780518252602082019150602081019050602083039250612121565b6001836020036101000a038019825116818451168082178552505050505050905001915050908152602001604051809103902060030160058e6040518082805190602001908083835b6020831015156121b4578051825260208201915060208101905060208303925061218f565b6001836020036101000a0380198251168184511680821785525050505050509050019150509081526020016040518091039020600501868054600181600116156101000203166002900480601f01602080910402602001604051908101604052809291908181526020018280546001816001161561010002031660029004801561227f5780601f106122545761010080835404028352916020019161227f565b820191906000526020600020905b81548152906001019060200180831161226257829003601f168201915b50505050509650848054600181600116156101000203166002900480601f01602080910402602001604051908101604052809291908181526020018280546001816001161561010002031660029004801561231b5780601f106122f05761010080835404028352916020019161231b565b820191906000526020600020905b8154815290600101906020018083116122fe57829003601f168201915b50505050509450838054600181600116156101000203166002900480601f0160208091040260200160405190810160405280929190818152602001828054600181600116156101000203166002900480156123b75780601f1061238c576101008083540402835291602001916123b7565b820191906000526020600020905b81548152906001019060200180831161239a57829003601f168201915b50505050509350828054600181600116156101000203166002900480601f0160208091040260200160405190810160405280929190818152602001828054600181600116156101000203166002900480156124535780601f1061242857610100808354040283529160200191612453565b820191906000526020600020905b81548152906001019060200180831161243657829003601f168201915b50505050509250818054600181600116156101000203166002900480601f0160208091040260200160405190810160405280929190818152602001828054600181600116156101000203166002900480156124ef5780601f106124c4576101008083540402835291602001916124ef565b820191906000526020600020905b8154815290600101906020018083116124d257829003601f168201915b50505050509150808054600181600116156101000203166002900480601f01602080910402602001604051908101604052809291908181526020018280546001816001161561010002031660029004801561258b5780601f106125605761010080835404028352916020019161258b565b820191906000526020600020905b81548152906001019060200180831161256e57829003601f168201915b505050505090509650965096509650965096509650919395979092949650565b6004818154811015156125ba57fe5b906000526020600020016000915054906101000a900473ffffffffffffffffffffffffffffffffffffffff1681565b80600760008473ffffffffffffffffffffffffffffffffffffffff1673ffffffffffffffffffffffffffffffffffffffff168152602001908152602001600020600201908051906020019061263f929190613bd6565b505050565b80600660008473ffffffffffffffffffffffffffffffffffffffff1673ffffffffffffffffffffffffffffffffffffffff168152602001908152602001600020600201908051906020019061269a929190613bd6565b505050565b6126a7613c56565b82816000018190525081816020019073ffffffffffffffffffffffffffffffffffffffff16908173ffffffffffffffffffffffffffffffffffffffff168152505080600660008473ffffffffffffffffffffffffffffffffffffffff1673ffffffffffffffffffffffffffffffffffffffff1681526020019081526020016000206000820151816000019080519060200190612744929190613af6565b5060208201518160010160006101000a81548173ffffffffffffffffffffffffffffffffffffffff021916908373ffffffffffffffffffffffffffffffffffffffff16021790555060408201518160020190805190602001906127a8929190613af6565b5090505060028290806001815401808255809150509060018203906000526020600020016000909192909190916101000a81548173ffffffffffffffffffffffffffffffffffffffff021916908373ffffffffffffffffffffffffffffffffffffffff16021790555050505050565b6060806000600860008573ffffffffffffffffffffffffffffffffffffffff1673ffffffffffffffffffffffffffffffffffffffff168152602001908152602001600020600001600860008673ffffffffffffffffffffffffffffffffffffffff1673ffffffffffffffffffffffffffffffffffffffff168152602001908152602001600020600201600860008773ffffffffffffffffffffffffffffffffffffffff1673ffffffffffffffffffffffffffffffffffffffff16815260200190815260200160002060010160009054906101000a900473ffffffffffffffffffffffffffffffffffffffff16828054600181600116156101000203166002900480601f0160208091040260200160405190810160405280929190818152602001828054600181600116156101000203166002900480156129985780601f1061296d57610100808354040283529160200191612998565b820191906000526020600020905b81548152906001019060200180831161297b57829003601f168201915b50505050509250818054600181600116156101000203166002900480601f016020809104026020016040519081016040528092919081815260200182805460018160011615610100020316600290048015612a345780601f10612a0957610100808354040283529160200191612a34565b820191906000526020600020905b815481529060010190602001808311612a1757829003601f168201915b505050505091509250925092509193909250565b612a50613c8e565b82816000018190525081816020019073ffffffffffffffffffffffffffffffffffffffff16908173ffffffffffffffffffffffffffffffffffffffff168152505080600760008473ffffffffffffffffffffffffffffffffffffffff1673ffffffffffffffffffffffffffffffffffffffff1681526020019081526020016000206000820151816000019080519060200190612aed929190613af6565b5060208201518160010160006101000a81548173ffffffffffffffffffffffffffffffffffffffff021916908373ffffffffffffffffffffffffffffffffffffffff1602179055506040820151816002019080519060200190612b51929190613af6565b5090505060038290806001815401808255809150509060018203906000526020600020016000909192909190916101000a81548173ffffffffffffffffffffffffffffffffffffffff021916908373ffffffffffffffffffffffffffffffffffffffff16021790555050505050565b6060806000600660008573ffffffffffffffffffffffffffffffffffffffff1673ffffffffffffffffffffffffffffffffffffffff168152602001908152602001600020600001600660008673ffffffffffffffffffffffffffffffffffffffff1673ffffffffffffffffffffffffffffffffffffffff168152602001908152602001600020600201600660008773ffffffffffffffffffffffffffffffffffffffff1673ffffffffffffffffffffffffffffffffffffffff16815260200190815260200160002060010160009054906101000a900473ffffffffffffffffffffffffffffffffffffffff16828054600181600116156101000203166002900480601f016020809104026020016040519081016040528092919081815260200182805460018160011615610100020316600290048015612d415780601f10612d1657610100808354040283529160200191612d41565b820191906000526020600020905b815481529060010190602001808311612d2457829003601f168201915b50505050509250818054600181600116156101000203166002900480601f016020809104026020016040519081016040528092919081815260200182805460018160011615610100020316600290048015612ddd5780601f10612db257610100808354040283529160200191612ddd565b820191906000526020600020905b815481529060010190602001808311612dc057829003601f168201915b505050505091509250925092509193909250565b6000809054906101000a900473ffffffffffffffffffffffffffffffffffffffff1681565b600281815481101515612e2557fe5b906000526020600020016000915054906101000a900473ffffffffffffffffffffffffffffffffffffffff1681565b60606040805190810160405280600481526020017f7465737400000000000000000000000000000000000000000000000000000000815250905090565b600181815481101515612ea057fe5b906000526020600020016000915090508054600181600116156101000203166002900480601f016020809104026020016040519081016040528092919081815260200182805460018160011615610100020316600290048015612f445780601f10612f1957610100808354040283529160200191612f44565b820191906000526020600020905b815481529060010190602001808311612f2757829003601f168201915b505050505081565b866005896040518082805190602001908083835b602083101515612f855780518252602082019150602081019050602083039250612f60565b6001836020036101000a03801982511681845116808217855250505050505090500191505090815260200160405180910390206000019080519060200190612fce929190613bd6565b50856005896040518082805190602001908083835b6020831015156130085780518252602082019150602081019050602083039250612fe3565b6001836020036101000a03801982511681845116808217855250505050505090500191505090815260200160405180910390206009019080519060200190613051929190613bd6565b50806005896040518082805190602001908083835b60208310151561308b5780518252602082019150602081019050602083039250613066565b6001836020036101000a0380198251168184511680821785525050505050509050019150509081526020016040518091039020600a0190805190602001906130d4929190613bd6565b50846005896040518082805190602001908083835b60208310151561310e57805182526020820191506020810190506020830392506130e9565b6001836020036101000a03801982511681845116808217855250505050505090500191505090815260200160405180910390206005019080519060200190613157929190613bd6565b50836005896040518082805190602001908083835b602083101515613191578051825260208201915060208101905060208303925061316c565b6001836020036101000a038019825116818451168082178552505050505050905001915050908152602001604051809103902060060190805190602001906131da929190613bd6565b50826005896040518082805190602001908083835b60208310151561321457805182526020820191506020810190506020830392506131ef565b6001836020036101000a038019825116818451168082178552505050505050905001915050908152602001604051809103902060070181905550816005896040518082805190602001908083835b6020831015156132875780518252602082019150602081019050602083039250613262565b6001836020036101000a038019825116818451168082178552505050505050905001915050908152602001604051809103902060080190805190602001906132d0929190613bd6565b505050505050505050565b80600860008473ffffffffffffffffffffffffffffffffffffffff1673ffffffffffffffffffffffffffffffffffffffff1681526020019081526020016000206002019080519060200190613331929190613bd6565b505050565b60038181548110151561334557fe5b906000526020600020016000915054906101000a900473ffffffffffffffffffffffffffffffffffffffff1681565b6060806000600760008573ffffffffffffffffffffffffffffffffffffffff1673ffffffffffffffffffffffffffffffffffffffff168152602001908152602001600020600001600760008673ffffffffffffffffffffffffffffffffffffffff1673ffffffffffffffffffffffffffffffffffffffff168152602001908152602001600020600201600760008773ffffffffffffffffffffffffffffffffffffffff1673ffffffffffffffffffffffffffffffffffffffff16815260200190815260200160002060010160009054906101000a900473ffffffffffffffffffffffffffffffffffffffff16828054600181600116156101000203166002900480601f0160208091040260200160405190810160405280929190818152602001828054600181600116156101000203166002900480156134f55780601f106134ca576101008083540402835291602001916134f5565b820191906000526020600020905b8154815290600101906020018083116134d857829003601f168201915b50505050509250818054600181600116156101000203166002900480601f0160208091040260200160405190810160405280929190818152602001828054600181600116156101000203166002900480156135915780601f1061356657610100808354040283529160200191613591565b820191906000526020600020905b81548152906001019060200180831161357457829003601f168201915b505050505091509250925092509193909250565b60608060006060806005866040518082805190602001908083835b6020831015156135e557805182526020820191506020810190506020830392506135c0565b6001836020036101000a03801982511681845116808217855250505050505090500191505090815260200160405180910390206000016005876040518082805190602001908083835b602083101515613653578051825260208201915060208101905060208303925061362e565b6001836020036101000a03801982511681845116808217855250505050505090500191505090815260200160405180910390206001016005886040518082805190602001908083835b6020831015156136c1578051825260208201915060208101905060208303925061369c565b6001836020036101000a0380198251168184511680821785525050505050509050019150509081526020016040518091039020600b0160009054906101000a900473ffffffffffffffffffffffffffffffffffffffff166005896040518082805190602001908083835b602083101515613750578051825260208201915060208101905060208303925061372b565b6001836020036101000a038019825116818451168082178552505050505050905001915050908152602001604051809103902060090160058a6040518082805190602001908083835b6020831015156137be5780518252602082019150602081019050602083039250613799565b6001836020036101000a0380198251168184511680821785525050505050509050019150509081526020016040518091039020600a01848054600181600116156101000203166002900480601f0160208091040260200160405190810160405280929190818152602001828054600181600116156101000203166002900480156138895780601f1061385e57610100808354040283529160200191613889565b820191906000526020600020905b81548152906001019060200180831161386c57829003601f168201915b50505050509450838054600181600116156101000203166002900480601f0160208091040260200160405190810160405280929190818152602001828054600181600116156101000203166002900480156139255780601f106138fa57610100808354040283529160200191613925565b820191906000526020600020905b81548152906001019060200180831161390857829003601f168201915b50505050509350818054600181600116156101000203166002900480601f0160208091040260200160405190810160405280929190818152602001828054600181600116156101000203166002900480156139c15780601f10613996576101008083540402835291602001916139c1565b820191906000526020600020905b8154815290600101906020018083116139a457829003601f168201915b50505050509150808054600181600116156101000203166002900480601f016020809104026020016040519081016040528092919081815260200182805460018160011615610100020316600290048015613a5d5780601f10613a3257610100808354040283529160200191613a5d565b820191906000526020600020905b815481529060010190602001808311613a4057829003601f168201915b505050505090509450945094509450945091939590929450565b6101a0604051908101604052806060815260200160608152602001606081526020016060815260200160608152602001606081526020016060815260200160008152602001606081526020016060815260200160608152602001600073ffffffffffffffffffffffffffffffffffffffff168152602001606081525090565b828054600181600116156101000203166002900490600052602060002090601f016020900481019282601f10613b3757805160ff1916838001178555613b65565b82800160010185558215613b65579182015b82811115613b64578251825591602001919060010190613b49565b5b509050613b729190613cc6565b5090565b828054828255906000526020600020908101928215613bc5579160200282015b82811115613bc4578251829080519060200190613bb4929190613af6565b5091602001919060010190613b96565b5b509050613bd29190613ceb565b5090565b828054600181600116156101000203166002900490600052602060002090601f016020900481019282601f10613c1757805160ff1916838001178555613c45565b82800160010185558215613c45579182015b82811115613c44578251825591602001919060010190613c29565b5b509050613c529190613cc6565b5090565b60606040519081016040528060608152602001600073ffffffffffffffffffffffffffffffffffffffff168152602001606081525090565b60606040519081016040528060608152602001600073ffffffffffffffffffffffffffffffffffffffff168152602001606081525090565b613ce891905b80821115613ce4576000816000905550600101613ccc565b5090565b90565b613d1491905b80821115613d105760008181613d079190613d17565b50600101613cf1565b5090565b90565b50805460018160011615610100020316600290046000825580601f10613d3d5750613d5c565b601f016020900490600052602060002090810190613d5b9190613cc6565b5b5056fea165627a7a723058208fe5d8217b768a571fa4df56095e1cfe60ae5ab5535086d6591df9dd59b5210a0029",
  "source": "//SPDX-License-Identifier:MIT\r\npragma solidity ^0.5.1;\r\n\r\ncontract Case {\r\n    address public owner; \r\n    constructor() public {\r\n        owner  = msg.sender;\r\n        // i could add a person in the constructor here and instead of a separate array of \r\n    }\r\n    struct legal_case {\r\n        string name;\r\n        string id;\r\n        string accused;\r\n        string rep;\r\n        string dateAdded;\r\n        string hearingDate;\r\n        string files;\r\n        uint severity;\r\n        string verdict;\r\n        string lawyers;\r\n        string judge; \r\n        address admin;\r\n        string[] records; \r\n    }\r\n\r\n    struct lawyer{\r\n        string name; \r\n        address id;\r\n        string cases;\r\n    }\r\n    struct judge{\r\n        string name; \r\n        address id;\r\n        string cases;\r\n    }\r\n    struct admin{\r\n        string name; \r\n        address id;\r\n        string cases;\r\n    }\r\n\r\n    string[] public all_cases;\r\n    address[] public lawyerList;\r\n    address[] public judgeList;\r\n    address[] public adminList;\r\n\r\n    mapping(string => legal_case) id_to_case;\r\n    mapping(address => lawyer) addr_to_lawyer;\r\n    mapping(address => judge) addr_to_judge;\r\n    mapping(address => admin) addr_to_admin;\r\n\r\n    function testContract() view public returns (string memory) {\r\n        return \"test\";\r\n    }\r\n\r\n    function getCaseUser( string memory id) view public returns ( string memory, string memory, address, string memory, string memory){\r\n        return ( id_to_case[id].name,id_to_case[id].id,id_to_case[id].admin,id_to_case[id].lawyers,id_to_case[id].judge);\r\n    }\r\n    function getCaseDetails( string memory id) view public returns (string memory,uint, string memory,string memory,string memory, string memory, string memory){\r\n        return ( id_to_case[id].files,id_to_case[id].severity,id_to_case[id].verdict,id_to_case[id].dateAdded,id_to_case[id].accused,id_to_case[id].rep, id_to_case[id].hearingDate);\r\n    }\r\n\r\n    function getLawyer( address id) view public returns ( string memory, string memory, address ){\r\n        return ( addr_to_lawyer[id].name, addr_to_lawyer[id].cases, addr_to_lawyer[id].id);\r\n    }\r\n    function getJudge( address id) view public returns ( string memory, string memory ,address){\r\n        return ( addr_to_judge[id].name, addr_to_judge[id].cases, addr_to_judge[id].id);\r\n    }\r\n    function getAdmin( address id) view public returns ( string memory, string memory, address ){\r\n        return ( addr_to_admin[id].name, addr_to_admin[id].cases, addr_to_admin[id].id);\r\n    }\r\n\r\n    function addLawyer( string memory name, address id) public {\r\n        // require(msg.sender == owner );\r\n        \r\n        lawyer memory l;\r\n        l.name = name; \r\n        l.id = id; \r\n        addr_to_lawyer[id] = l;\r\n        lawyerList.push(id);\r\n    }\r\n    function addJudge( string memory name, address id) public {\r\n        // require(msg.sender == owner );\r\n        \r\n        judge memory l;\r\n        l.name = name; \r\n        l.id = id; \r\n        addr_to_judge[id] = l;\r\n        judgeList.push(id);\r\n    }\r\n    function addCase(string memory id, string memory name, string memory lawyer, string memory date,string memory accused, string memory rep, string memory hearingDate) public {\r\n        // require(msg.sender == owner );\r\n        \r\n        legal_case memory c;\r\n        c.admin = owner;\r\n        c.name = name; \r\n        c.id = id; \r\n        c.accused = accused;\r\n        c.rep = rep;\r\n        c.hearingDate = hearingDate;\r\n        c.dateAdded = date;\r\n        c.lawyers = lawyer;\r\n        c.verdict = 'unsolved';\r\n        c.files = '';\r\n        id_to_case[id] = c; \r\n        all_cases.push(id); \r\n    }\r\n    // removeCase( ) public {}\r\n    function modifyCase(string memory id, string memory name, string memory lawyer,string memory hearingDate, string memory files, uint severity, string memory verdict, string memory judge) public{\r\n        id_to_case[id].name = name;\r\n        id_to_case[id].lawyers = lawyer;\r\n        id_to_case[id].judge = judge;\r\n        id_to_case[id].hearingDate = hearingDate;\r\n        id_to_case[id].files = files;\r\n        id_to_case[id].severity = severity;\r\n        id_to_case[id].verdict = verdict;\r\n    }\r\n\r\n    function modifyLawyer( address id,string memory cases) public {\r\n        addr_to_lawyer[id].cases = cases;\r\n    }\r\n    function modifyJudge( address id,string memory cases) public {\r\n        addr_to_judge[id].cases = cases;\r\n    }\r\n    function modifyAdmin( address id,string memory cases) public {\r\n        addr_to_admin[id].cases = cases;\r\n    }\r\n}",
  "sourcePath": "C:\\Users\\AKSHAT GUPTA\\Documents\\programing_stuff\\coutLedger\\contract_storage\\contracts\\Case.sol",
  "compiler": {
    "name": "solc",
    "version": "0.5.1+commit.c8a2cb62.Emscripten.clang"
  },
  "schemaVersion": "3.4.11",
  "updatedAt": "2022-12-18T16:10:00.841Z",
  "networkType": "ethereum",
  "devdoc": {
    "methods": {}
  },
  "userdoc": {
    "methods": {}
  }
}